:020000040C00EE
:1000000000080020010200084718000857180008DF
:10001000671800087718000887180008000000001B
:100020000000000000000000000000009718000819
:10003000A718000800000000B7180008C71800083B
:10004000D7180008E7180008F71800080719000873
:100050001719000827190008371900084719000860
:100060005719000800000000000000000000000018
:1000700067190008000000007719000887190008B8
:1000800097190008A7190008B7190008C719000830
:10009000D7190008E7190008F7190008071A00081F
:1000A000171A0008271A0008371A0008471A00080C
:1000B000571A0008671A0008771A0008871A0008FC
:1000C000971A0008A71A0008B71A0008C71A0008EC
:1000D000D71A0008E71A0008F71A0008071B0008DB
:1000E000171B0008271B0008371B0008471B0008C8
:1000F000571B0008671B0008771B0008871B0008B8
:10010000971B0008A51B0008B31B0008C11B0008B3
:10011000CF1B0008DD1B0008EB1B0008F91B0008C3
:10012000071C0008151C0008231C0008311C0008CF
:100130003F1C00084D1C00085B1C0008691C0008DF
:10014000771C0008851C0008931C0008A11C0008EF
:10015000AF1C0008BD1C0008CB1C0008D91C0008FF
:10016000000000000000000000000000000000008F
:10017000E71C0008F51C0008031D0008111D0008FD
:100180001F1D00082D1D00083B1D0008491D00080B
:10019000571D0008651D0008731D0008811D00081B
:1001A0008F1D00089D1D0008AB1D0008B91D00082B
:1001B000C71D0008D51D0008E31D0008F11D00083B
:1001C000FF1D00080D1E00081B1E0008291E000848
:1001D000371E0008451E0008531E000800000000DE
:1001E000611E00086F1E00087D1E00088B1E00089F
:1001F000991E000800000000A71E00080000000073
:10020000DFF80CD0034880470348804700F006B869
:100210000008002071200008F174000819481A49EC
:100220001A4A002A00F00D804FEA920203680B6020
:10023000013A00F0068000F1040001F10401FFF72B
:10024000F5BF13481349002900F00C804FEA9101D3
:100250004FF000020260013900F0048000F1040058
:10026000FFF7F8BF0C480D4908600D4880470D485E
:100270008047DFF834D04FF000004FF00001DFF886
:100280002CF000008015010C000C0020400900003B
:1002900000080020F40300000000000808ED00E062
:1002A0000D210008A1840008000800202127000873
:1002B00000BF704780B500AF40F6EC60C0F60100AB
:1002C00000F002F880BD00BF80B582B000AF78605A
:1002D000786808F079F903467868194600F004F860
:1002E00007F10807BD4680BD80B584B000AF7860D7
:1002F00039607B68FB6014E000BF41F29000C0F6FB
:100300000100F9684FF0010203F00EFC0346002BD8
:10031000F3D0FB6803F10103FB603B6803F1FF339B
:100320003B603B68002BE7DC07F11007BD4680BD52
:1003300080B500AF41F20C10C0F6010040F600019C
:10034000C2F2000105F0AAFB0346002B0CD141F2DA
:100350005410C0F6010040F61001C2F2000105F091
:100360009DFB0346002B02D04FF0010381E040F6D5
:100370000003C2F20003D3ED007AB8EE677ADFED36
:100380003E7A67EE277AFCEEE77A40F60803C2F27F
:100390000003C3ED007A40F60003C2F20003D3ED80
:1003A000007AB8EE677ADFED357A67EE277AFCEEF1
:1003B000E77A40F60403C2F20003C3ED007A40F688
:1003C0000003C2F20003D3ED007AB8EE677ADFEDE6
:1003D0002C7A67EE277AFCEEE77A40F60C03C2F23D
:1003E0000003C3ED007A40F61003C2F20003D3ED20
:1003F000007AB8EE677ADFED237A67EE277AFCEEB3
:10040000E77A40F61803C2F20003C3ED007A40F623
:100410001003C2F20003D3ED007AB8EE677ADFED85
:100420001A7A67EE277AFCEEE77A40F61403C2F2F6
:100430000003C3ED007A40F61003C2F20003D3EDCF
:10044000007AB8EE677ADFED117A67EE277AFCEE74
:10045000E77A40F61C03C2F20003C3ED007A4FF0C6
:10046000000000F015F84FF0000000F07FF84FF0AA
:100470000003184680BD00BF295C0F3E0AD7233E0B
:10048000EC51383E8716D93DBE9F1A3E8195433EBA
:1004900080B584B000AF786040F60403C2F2000378
:1004A0001B68FB607B68002B27DA7B68C3F10003C5
:1004B0007B607B68642B02DD4FF064037B6040F659
:1004C0000403C2F200031A6840F60403C2F20003F8
:1004D000196840F60803C2F200031B68CB1A79685A
:1004E00001FB03F148F21F53C5F2EB13A3FB010319
:1004F0004FEA5313D31AFB6025E07B68002B22DD03
:100500007B68642B02DD4FF064037B6040F60C03D4
:10051000C2F200031A6840F60403C2F200031B682B
:10052000D31A7A6802FB03F248F21F53C5F2EB13A9
:10053000A3FB02134FEA531240F60403C2F2000376
:100540001B68D318FB6040F60003C2F200031A6870
:10055000FB68D31A41F20C10C0F60100194604F0F2
:100560001DFD07F11007BD4680BD00BF80B584B0FA
:1005700000AF786040F61403C2F200031B68FB6012
:100580007B68002B27DA7B68C3F100037B607B6804
:10059000642B02DD4FF064037B6040F61403C2F26B
:1005A00000031A6840F61403C2F20003196840F60B
:1005B0001803C2F200031B68CB1A796801FB03F130
:1005C00048F21F53C5F2EB13A3FB01034FEA531389
:1005D000D31AFB6025E07B68002B22DD7B68642B4F
:1005E00002DD4FF064037B6040F61C03C2F200039F
:1005F0001A6840F61403C2F200031B68D31A7A6823
:1006000002FB03F248F21F53C5F2EB13A3FB0213E4
:100610004FEA531240F61403C2F200031B68D318CA
:10062000FB6040F61003C2F200031A68FB68D31A9D
:1006300041F25410C0F60100194604F0AFFC07F176
:100640001007BD4680BD00BF80B483B000AF4FF03F
:1006500000037B6040F6E403C2F200031A6840F630
:10066000E003C2F200031B689A421ED040F6E40386
:10067000C2F200031A6813464FEA43039B184FEA7D
:10068000830340F62002C2F200029B187B6040F612
:10069000E403C2F200031B6803F1010303F00F023D
:1006A00040F6E403C2F200031A607B68184607F1C3
:1006B0000C07BD4680BC704780B483B000AF0346D2
:1006C000FB71FA7940F60043C2F2000353F822307E
:1006D000184607F10C07BD4680BC704780B483B054
:1006E00000AF0346FB71FA7940F62C43C2F20003D7
:1006F00053F82230184607F10C07BD4680BC7047FE
:1007000080B485B000AFBA607B600346FB730B46D4
:10071000BB73FB7BA3F10303072B47D801A252F85D
:1007200023F000BF450700085D070008AD0700087B
:10073000AD070008AD07000891070008AD070008E5
:100740009F070008BB68642B00F38E80BB7B012BE6
:100750002ED1BB68C3F10003BB6029E0BB68642BEA
:1007600000F38480BB7B002B03D14FF00303BB73EA
:100770001FE0BB7B012B07D14FF00203BB73BB68AB
:10078000C3F10003BB6014E04FF00003BB6010E056
:100790004FF00403BB734FF00003BB6009E04FF060
:1007A0000403BB734FF00003BB6002E000BF00E036
:1007B00000BF40F6E003C2F20003196840F62002D1
:1007C000C2F200020B464FEA43035B184FEA830371
:1007D000D318FA7B1A7040F6E003C2F200031968DE
:1007E00040F62002C2F200020B464FEA43035B18B8
:1007F0004FEA8303D318BA7B5A7040F6E003C2F283
:100800000003196840F62002C2F200020B464FEACC
:1008100043035B184FEA8303D31803F10403BA6858
:100820001A6040F6E003C2F20003196840F62002A5
:10083000C2F200020B464FEA43035B184FEA830300
:10084000D31803F108037A681A6040F6E003C2F295
:1008500000031B6803F1010303F00F0240F6E003FD
:10086000C2F200031A6002E000BF00E000BF07F11F
:100870001407BD4680BC704780B584B000AF034606
:10088000FB714FF00003FB73FB790D2B00F05D83D0
:10089000FB79BB7340F65C43C2F200031A68BB7B72
:1008A00003F10103D3181B7803F00303022B03D1D8
:1008B000BB7BA3F1200300E0BB7BFB7140F6E803A8
:1008C000C2F200031B78062B00F2258301A252F826
:1008D00023F000BFF1080008870B0008450C000852
:1008E000DF0C00085B0D0008730E0008010F000804
:1008F000FB79A3F10903562B00F23B8101A252F8C8
:1009000023F000BF830B0008830B0008730B000863
:10091000730B0008730B0008730B0008730B0008BF
:10092000730B0008730B0008730B0008730B0008AF
:10093000730B0008730B0008730B0008730B00089F
:10094000730B0008730B0008730B0008730B00088F
:10095000730B0008730B0008730B0008730B00087F
:10096000830B0008730B0008730B0008730B00085F
:10097000730B0008730B0008730B0008730B00085F
:10098000730B0008730B0008730B0008730B00084F
:10099000730B0008730B0008730B0008730B00083F
:1009A000730B0008730B0008730B0008730B00082F
:1009B000730B0008730B0008730B0008730B00081F
:1009C000730B0008730B0008730B0008730B00080F
:1009D000730B0008730B0008730B0008730B0008FF
:1009E000730B0008730B0008030B0008730B00085F
:1009F0004F0B0008610A0008730B0008850A000805
:100A0000E50A0008210B0008730B0008730B0008AF
:100A1000730B0008730B0008730B0008730B0008BE
:100A2000730B0008730B0008730B0008C70A00085B
:100A3000A90A0008730B0008730B0008730B000869
:100A4000730B0008730B0008730B0008730B00088E
:100A5000730B0008730B0008730B00083F0B0008B2
:100A600040F6E803C2F200034FF006021A7040F6A7
:100A7000E903C2F200034FF008021A704FF00103BD
:100A8000FB737FE040F6E803C2F200034FF006027A
:100A90001A7040F6E903C2F200034FF00A021A701E
:100AA0004FF00103FB736DE040F6E803C2F2000370
:100AB0004FF001021A7040F6E903C2F200034FF052
:100AC00003021A705EE040F6E803C2F200034FF042
:100AD00001021A7040F6E903C2F200034FF004026B
:100AE0001A704FE040F6E803C2F200034FF0020232
:100AF0001A7040F6E903C2F200034FF000021A70C8
:100B000040E040F6E803C2F200034FF002021A7020
:100B100040F6E903C2F200034FF001021A7031E01F
:100B200040F6E803C2F200034FF002021A7040F6EA
:100B3000E903C2F200034FF002021A7022E040F60D
:100B4000E803C2F200034FF003021A701AE040F605
:100B5000E903C2F200034FF009021A704FF00103DB
:100B6000FB7340F6E803C2F200034FF006021A706E
:100B700008E040F6E803C2F200034FF006021A70E4
:100B800000E000BFC7E140F6EA03C2F200034FF005
:100B900000021A7040F6EC03C2F200034FF00002AC
:100BA0001A6040F65C43C2F200031A68FB7903F155
:100BB0000103D3181B7803F00403002B0FD0FB793B
:100BC000A3F1300240F6EC03C2F200031A6040F6D3
:100BD000E803C2F200034FF005021A709BE1FB79B3
:100BE0002D2B0ED140F6EA03C2F200034FF00102B2
:100BF0001A7040F6E803C2F200034FF005021A70C3
:100C000089E1FB792B2B07D140F6E803C2F2000300
:100C10004FF005021A707EE1FB790A2B0AD140F6EB
:100C2000E803C2F200034FF000021A704FF0010314
:100C3000FB7370E140F6E803C2F200034FF00602D6
:100C40001A7068E140F6EC03C2F200034FF00002B4
:100C50001A60FB794C2B09D04C2B04DC0A2B23D0D7
:100C60002C2B21D032E0522B0FD02FE040F6E8039E
:100C7000C2F200034FF005021A7040F6EA03C2F216
:100C800000034FF002021A7028E040F6E803C2F2B7
:100C900000034FF005021A7040F6EA03C2F20003A7
:100CA0004FF003021A7019E040F6E803C2F20003A5
:100CB0004FF000021A7040F6EA03C2F200034FF050
:100CC00004021A704FF00103FB7307E040F6E803DB
:100CD000C2F200034FF006021A7000BF1BE140F69B
:100CE000F003C2F200034FF000021A6040F6E8037E
:100CF000C2F200034FF004021A7040F6F403C2F28D
:100D000000034FF000021A60FB79492B0CD0502BE6
:100D100002D0442B10D017E040F6E903C2F20003E2
:100D20004FF005021A7017E040F6E903C2F2000323
:100D30004FF006021A700FE040F6E903C2F200031A
:100D40004FF007021A7007E040F6E803C2F2000312
:100D50004FF006021A7000BFDDE040F6F403C2F265
:100D600000031B68092B15DD40F6F403C2F20003F3
:100D70004FF000021A6040F6F803C2F200034FF091
:100D800000021A7040F6E803C2F200034FF00602B8
:100D90001A70C0E040F65C43C2F200031A68FB79A7
:100DA00003F10103D3181B7803F00403002B02D1D5
:100DB000FB792E2B12D140F6F403C2F200031A681D
:100DC00040F6F803C2F20003F979995402F10102E6
:100DD00040F6F403C2F200031A6049E0FB792C2BC1
:100DE00002D0FB790A2B3BD140F6F403C2F2000398
:100DF0001A6840F6F803C2F200034FF0000199545C
:100E00004FF00003BB6007F1080340F6F800C2F2A0
:100E10000000194608F06CFB024640F6F003C2F2EF
:100E200000031A60BB681B78002B11D140F6EC035D
:100E3000C2F200034FF000021A6040F6E803C2F26B
:100E400000034FF000021A704FF00103FB730FE034
:100E500040F6E803C2F200034FF006021A7007E002
:100E600040F6E803C2F200034FF006021A7052E0A7
:100E700051E040F65C43C2F200031A68FB7903F1CB
:100E80000103D3181B7803F00403002B1FD040F696
:100E9000EC03C2F200031A6813464FEA83039B185F
:100EA0004FEA43031A4640F6EC03C2F200031A600D
:100EB000FB79A3F1300240F6EC03C2F200031B6899
:100EC000D21840F6EC03C2F200031A6023E0FB796B
:100ED0002C2B02D0FB790A2B0AD140F6E803C2F290
:100EE00000034FF000021A704FF00103FB7312E091
:100EF00040F6E803C2F200034FF006021A700AE05F
:100F0000FB790A2B06D140F6E803C2F200034FF04A
:100F100000021A7000BFFB7B002B17D040F6E903DC
:100F2000C2F20003187840F6EA03C2F2000319780F
:100F300040F6EC03C2F200031A6840F6F003C2F276
:100F400000031B68FFF7DCFB00E000BF07F11007A0
:100F5000BD4680BD80B582B000AF41F29003C0F6BF
:100F600001031B68D3F81C31FB71FB791846FFF7AE
:100F700083FC07F10807BD4680BD00BF80B584B083
:100F800000AF02460B46FA71BB714FF004037B734E
:100F9000FA79BB791343DBB23B7300BF07F10C0353
:100FA00041F23820C0F60100194606F081F90346E7
:100FB000002BF3D04FF00103184607F11007BD4690
:100FC00080BD00BF80B584B000AF0346FB714FF019
:100FD00000037B73FB793B7300BF07F10C0341F205
:100FE0003820C0F60100194606F062F90346002BCE
:100FF000F3D007F11007BD4680BD00BF80B584B0B7
:1010000000AF0346FB71FB797B734FF0FF033B732B
:1010100000BF07F10C0341F23820C0F60100194669
:1010200006F046F90346002BF3D04FF000037B8116
:1010300000BF07F10A0341F23820C0F6010019464B
:1010400006F00CF90346002BF3D07B89DBB218467F
:1010500007F11007BD4680BD80B582B000AF4FF0EC
:1010600006037B714FF0FF033B7100BF07F10403E0
:1010700041F23820C0F60100194606F019F903467E
:10108000002BF3D007F10807BD4680BD80B584B0C2
:1010900000AF4FF0B0004FF00001FFF76FFF4FF0CF
:1010A0003000FFF78FFF4FF00100FFF78BFFFFF7D6
:1010B000D3FF4FF47A7000F087FB40F68872C0F6D9
:1010C00001023B461068516803C31189927A198066
:1010D0009A703B46FB604FF0B0004FF00001FFF705
:1010E0004DFF4FF00000FFF76DFFFB681B781846BF
:1010F000FFF768FFFB6803F101031B781846FFF751
:1011000061FFFB6803F102031B781846FFF75AFFE3
:10111000FB6803F103031B781846FFF753FFFB68D6
:1011200003F104031B781846FFF74CFFFB6803F13B
:1011300005031B781846FFF745FFFB6803F106031C
:101140001B781846FFF73EFFFFF786FF4FF47A70D3
:1011500000F03AFB4FF0B0004FF00001FFF70EFF38
:101160004FF00700FFF72EFFFB6803F107031B7822
:101170001846FFF727FFFB6803F108031B781846A2
:10118000FFF720FFFFF768FF4FF47A7000F01CFBB9
:101190004FF0B0004FF00001FFF7F0FE4FF01A00E3
:1011A000FFF710FFFB6803F109031B781846FFF7F0
:1011B00009FFFB6803F10A031B781846FFF702FFDB
:1011C000FFF74AFF4FF47A7000F0FEFA4FF0B000DC
:1011D0004FF00001FFF7D2FE4FF03300FFF7F2FEB1
:1011E0004FF00300FFF7EEFEFFF736FF4FF47A7083
:1011F00000F0EAFA4FF0B0004FF00001FFF7BEFE3A
:101200004FF03000FFF7DEFE4FF00800FFF7DAFE88
:10121000FFF722FF4FF47A7000F0D6FA07F11007BB
:10122000BD4680BD80B58AB000AFF860B9607A6015
:101230003B604FF0B0004FF00001FFF79FFE4FF012
:101240003600FFF7BFFEFFF707FF4FF0B0004FF08B
:101250000101FFF793FE4FF000037B620AE007F104
:1012600010027B6AD3184FF000021A707B6A03F1F8
:1012700001037B627B6A0F2BF1DD4FF000037B6281
:101280000EE04FF00200FFF7B9FE03461A4607F1E1
:1012900010017B6ACB181A707B6A03F101037B6231
:1012A0007B6A0E2BEDDD4FF00300FFF7A7FE034630
:1012B0001A4607F110017B6ACB181A70FFF7CCFEB3
:1012C0007B7C1A46FB681A80BB7C1A46FB685A80F6
:1012D000FB7C87F82330FB681A8897F823309BB291
:1012E00003F030039BB24FEA03139BB2D3189AB2B8
:1012F000FB681A80FB685A8897F823309BB203F08A
:10130000C0039BB24FEA83039BB2D3189AB2FB6827
:101310005A8097F8233003F00F03DAB2FB681A7192
:101320003B7D1A46BB681A807B7D1A46BB685A8093
:10133000BB7D87F82330BB681A8897F823309BB2AF
:1013400003F030039BB24FEA03139BB2D3189AB257
:10135000BB681A80BB685A8897F823309BB203F0A9
:10136000C0039BB24FEA83039BB2D3189AB2BB6807
:101370005A8097F8233003F00F03DAB2BB681A7172
:10138000FB7D1A467B681A803B7E1A467B685A8032
:101390007B7E87F823307B681A8897F823309BB2CE
:1013A00003F030039BB24FEA03139BB2D3189AB2F7
:1013B0007B681A807B685A8897F823309BB203F0C9
:1013C000C0039BB24FEA83039BB2D3189AB27B68E7
:1013D0005A8097F8233003F00F03DAB27B681A7152
:1013E000BB7E1A463B681A80FB7E1A463B685A80D1
:1013F0003B7F87F823303B681A8897F823309BB2ED
:1014000003F030039BB24FEA03139BB2D3189AB296
:101410003B681A803B685A8897F823309BB203F0E8
:10142000C0039BB24FEA83039BB2D3189AB23B68C6
:101430005A8097F8233003F00F03DAB23B681A7131
:1014400007F12807BD4680BD80B582B000AF4FF0E0
:1014500000037B6010E04FF001027B6802FA03F3A7
:10146000DBB2184600F08AF84FF4FA7000F0ACF9DD
:101470007B6803F101037B607B68072BEBDD4FF09A
:10148000FF0000F07BF84FF4FA7000F09DF94FF088
:10149000550000F073F84FF4FA7000F095F94FF032
:1014A000AA0000F06BF84FF4FA7000F08DF94FF0DD
:1014B000000000F063F84FF4FA7000F085F907F1CE
:1014C0000807BD4680BD00BF80B500AF40F6404371
:1014D000C2F200031B88DBB2184600F04FF840F65A
:1014E0000513C2F200031B78002B0DD140F64043D8
:1014F000C2F200031B884FEA43039AB240F640430E
:10150000C2F200031A800CE040F64043C2F200032E
:101510001B884FEA53039AB240F64043C2F20003DD
:101520001A8040F64043C2F200031B88B3F5807F67
:101530000ED140F64043C2F200034FF040021A8041
:1015400040F60513C2F200034FF001021A7014E0D6
:1015500040F64043C2F200031B88002B0DD140F639
:101560004043C2F200034FF002021A8040F6051316
:10157000C2F200034FF000021A7080BD80B485B043
:1015800000AF0346FB71FB7903F00103FB7341F2EB
:101590001023C0F601035A68FB7B002B09D041F2EF
:1015A0001023C0F601035B784FF0010101FA03F349
:1015B00008E041F21023C0F601035B784FF480315C
:1015C00001FA03F35360FB794FEA5303FB71FB7994
:1015D00003F00103FB7341F21823C0F601035A68BC
:1015E000FB7B002B09D041F21823C0F601035B7886
:1015F0004FF0010101FA03F308E041F21823C0F6AD
:1016000001035B784FF4803101FA03F35360FB79F7
:101610004FEA5303FB71FB7903F00103FB7341F2C3
:101620002023C0F601035A68FB7B002B09D041F24E
:101630002023C0F601035B784FF0010101FA03F3A8
:1016400008E041F22023C0F601035B784FF48031BB
:1016500001FA03F35360FB794FEA5303FB71FB7903
:1016600003F00103FB7341F22823C0F601035A681B
:10167000FB7B002B09D041F22823C0F601035B78E5
:101680004FF0010101FA03F308E041F22823C0F60C
:1016900001035B784FF4803101FA03F35360FB7967
:1016A0004FEA5303FB71FB7903F00103FB7341F233
:1016B0003023C0F601035A68FB7B002B09D041F2AE
:1016C0003023C0F601035B784FF0010101FA03F308
:1016D00008E041F23023C0F601035B784FF480311B
:1016E00001FA03F35360FB794FEA5303FB71FB7973
:1016F00003F00103FB7341F2B013C0F601035A6813
:10170000FB7B002B09D041F2B013C0F601035B78DC
:101710004FF0010101FA03F308E041F2B013C0F603
:1017200001035B784FF4803101FA03F35360FB79D6
:101730004FEA5303FB71FB7903F00103FB7341F2A2
:10174000B813C0F601035A68FB7B002B09D041F2A5
:10175000B813C0F601035B784FF0010101FA03F3FF
:1017600008E041F2B813C0F601035B784FF4803112
:1017700001FA03F35360FB794FEA5303FB71FB79E2
:1017800003F00103FB7341F2C013C0F601035A6872
:10179000FB7B002B09D041F2C013C0F601035B783C
:1017A0004FF0010101FA03F308E041F2C013C0F663
:1017B00001035B784FF4803101FA03F3536007F1C2
:1017C0001407BD4680BC704780B584B000AF786018
:1017D00078684FF0000141F62502C0F600024FF094
:1017E000000302F03DFDF86040F60413C2F200036E
:1017F0004FF000021A70FB68002B02D0F86802F06C
:10180000FFFD00BF40F60413C2F200031B78DBB2F9
:10181000002BF7D0F86802F095FE07F11007BD46DF
:1018200080BD00BF80B483B000AF786040F6041381
:10183000C2F200034FF001021A7007F10C07BD4617
:1018400080BC7047FEE7DFF8700600B581B08047C6
:1018500001B000BDFEE7DFF8640600B581B0804747
:1018600001B000BDFEE7DFF8580600B581B0804743
:1018700001B000BDFEE7DFF84C0600B581B080473F
:1018800001B000BDFEE7DFF8400600B581B080473B
:1018900001B000BDFEE7DFF8340600B581B0804737
:1018A00001B000BDFEE7DFF8280600B581B0804733
:1018B00001B000BDFEE7DFF81C0600B581B080472F
:1018C00001B000BDFEE7DFF8100600B581B080472B
:1018D00001B000BDFEE7DFF8040600B581B0804727
:1018E00001B000BDFEE7DFF8F80500B581B0804724
:1018F00001B000BDFEE7DFF8EC0500B581B0804720
:1019000001B000BDFEE7DFF8E00500B581B080471B
:1019100001B000BDFEE7DFF8D40500B581B0804717
:1019200001B000BDFEE7DFF8C80500B581B0804713
:1019300001B000BDFEE7DFF8BC0500B581B080470F
:1019400001B000BDFEE7DFF8B00500B581B080470B
:1019500001B000BDFEE7DFF8A40500B581B0804707
:1019600001B000BDFEE7DFF8980500B581B0804703
:1019700001B000BDFEE7DFF88C0500B581B08047FF
:1019800001B000BDFEE7DFF8800500B581B08047FB
:1019900001B000BDFEE7DFF8740500B581B08047F7
:1019A00001B000BDFEE7DFF8680500B581B08047F3
:1019B00001B000BDFEE7DFF85C0500B581B08047EF
:1019C00001B000BDFEE7DFF8500500B581B08047EB
:1019D00001B000BDFEE7DFF8440500B581B08047E7
:1019E00001B000BDFEE7DFF8380500B581B08047E3
:1019F00001B000BDFEE7DFF82C0500B581B08047DF
:101A000001B000BDFEE7DFF8200500B581B08047DA
:101A100001B000BDFEE7DFF8140500B581B08047D6
:101A200001B000BDFEE7DFF8080500B581B08047D2
:101A300001B000BDFEE7DFF8FC0400B581B08047CF
:101A400001B000BDFEE7DFF8F00400B581B08047CB
:101A500001B000BDFEE7DFF8E40400B581B08047C7
:101A600001B000BDFEE7DFF8D80400B581B08047C3
:101A700001B000BDFEE7DFF8CC0400B581B08047BF
:101A800001B000BDFEE7DFF8C00400B581B08047BB
:101A900001B000BDFEE7DFF8B40400B581B08047B7
:101AA00001B000BDFEE7DFF8A80400B581B08047B3
:101AB00001B000BDFEE7DFF89C0400B581B08047AF
:101AC00001B000BDFEE7DFF8900400B581B08047AB
:101AD00001B000BDFEE7DFF8840400B581B08047A7
:101AE00001B000BDFEE7DFF8780400B581B08047A3
:101AF00001B000BDFEE7DFF86C0400B581B080479F
:101B000001B000BDFEE7DFF8600400B581B080479A
:101B100001B000BDFEE7DFF8540400B581B0804796
:101B200001B000BDFEE7DFF8480400B581B0804792
:101B300001B000BDFEE7DFF83C0400B581B080478E
:101B400001B000BDFEE7DFF8300400B581B080478A
:101B500001B000BDFEE7DFF8240400B581B0804786
:101B600001B000BDFEE7DFF8180400B581B0804782
:101B700001B000BDFEE7DFF80C0400B581B080477E
:101B800001B000BDFEE7DFF8000400B581B080477A
:101B900001B000BDFEE7FD4800B581B0804701B04F
:101BA00000BDFEE7FA4800B581B0804701B000BD36
:101BB000FEE7F84800B581B0804701B000BDFEE700
:101BC000F54800B581B0804701B000BDFEE7F3489D
:101BD00000B581B0804701B000BDFEE7F04800B518
:101BE00081B0804701B000BDFEE7EE4800B581B08E
:101BF000804701B000BDFEE7EB4800B581B08047EB
:101C000001B000BDFEE7E94800B581B0804701B0F2
:101C100000BDFEE7E64800B581B0804701B000BDD9
:101C2000FEE7E44800B581B0804701B000BDFEE7A3
:101C3000E14800B581B0804701B000BDFEE7DF4854
:101C400000B581B0804701B000BDFEE7DC4800B5BB
:101C500081B0804701B000BDFEE7DA4800B581B031
:101C6000804701B000BDFEE7D74800B581B080478E
:101C700001B000BDFEE7D54800B581B0804701B096
:101C800000BDFEE7D24800B581B0804701B000BD7D
:101C9000FEE7D04800B581B0804701B000BDFEE747
:101CA000CD4800B581B0804701B000BDFEE7CB480C
:101CB00000B581B0804701B000BDFEE7C84800B55F
:101CC00081B0804701B000BDFEE7C64800B581B0D5
:101CD000804701B000BDFEE7C34800B581B0804732
:101CE00001B000BDFEE7C14800B581B0804701B03A
:101CF00000BDFEE7BE4800B581B0804701B000BD21
:101D0000FEE7BC4800B581B0804701B000BDFEE7EA
:101D1000B94800B581B0804701B000BDFEE7B748C3
:101D200000B581B0804701B000BDFEE7B44800B502
:101D300081B0804701B000BDFEE7B24800B581B078
:101D4000804701B000BDFEE7AF4800B581B08047D5
:101D500001B000BDFEE7AD4800B581B0804701B0DD
:101D600000BDFEE7AA4800B581B0804701B000BDC4
:101D7000FEE7A84800B581B0804701B000BDFEE78E
:101D8000A54800B581B0804701B000BDFEE7A3487B
:101D900000B581B0804701B000BDFEE7A04800B5A6
:101DA00081B0804701B000BDFEE79E4800B581B01C
:101DB000804701B000BDFEE79B4800B581B0804779
:101DC00001B000BDFEE7994800B581B0804701B081
:101DD00000BDFEE7964800B581B0804701B000BD68
:101DE000FEE7944800B581B0804701B000BDFEE732
:101DF000914800B581B0804701B000BDFEE78F4833
:101E000000B581B0804701B000BDFEE78C4800B549
:101E100081B0804701B000BDFEE78A4800B581B0BF
:101E2000804701B000BDFEE7874800B581B080471C
:101E300001B000BDFEE7854800B581B0804701B024
:101E400000BDFEE7824800B581B0804701B000BD0B
:101E5000FEE7804800B581B0804701B000BDFEE7D5
:101E60007D4800B581B0804701B000BDFEE77B48EA
:101E700000B581B0804701B000BDFEE7784800B5ED
:101E800081B0804701B000BDFEE7764800B581B063
:101E9000804701B000BDFEE7734800B581B08047C0
:101EA00001B000BDFEE7714800B581B0804701B0C8
:101EB00000BD4FF001007047451800085518000894
:101EC000651800087518000885180008951800089E
:101ED000A5180008B5180008A1410008D518000889
:101EE000E5180008F518000805190008151900087C
:101EF000251900083519000845190008551900086A
:101F00006519000875190008851900089519000859
:101F1000A5190008B5190008C5190008D519000849
:101F2000E5190008F5190008051A0008151A000837
:101F3000251A0008351A0008451A0008551A000825
:101F4000651A0008751A0008851A0008951A000815
:101F5000A51A0008B51A0008C51A0008D51A000805
:101F6000E51A0008F51A0008051B0008151B0008F3
:101F7000251B0008351B0008451B0008551B0008E1
:101F8000651B0008751B0008851B0008951B0008D1
:101F9000A31B0008B11B0008BF1B0008CD1B0008D5
:101FA000DB1B0008E91B0008F71B0008051C0008E4
:101FB000131C0008211C00082F1C00083D1C0008F1
:101FC0004B1C0008591C0008671C0008751C000801
:101FD000831C0008911C00089F1C0008AD1C000811
:101FE000BB1C0008C91C0008D71C0008E51C000821
:101FF000F31C0008011D00080F1D00081D1D00082E
:102000002B1D0008391D0008471D0008551D00083C
:10201000631D0008711D00087F1D00088D1D00084C
:10202000550F0008A91D0008B71D0008C51D0008B0
:10203000D31D0008E11D0008EF1D0008FD1D00086C
:102040000B1E0008191E0008271E0008351E000878
:10205000431E0008511E00085F1E00086D1E000888
:102060007B1E0008891E0008971E0008A51E000898
:1020700080B582B000AF4FF46D43CEF200034FF451
:102080006D42CEF20002D2F8882042F47002C3F80A
:1020900088204FF46D43CEF200034FF46D42CEF230
:1020A0000002526922F008025A614FF40043C5F25F
:1020B00000034FF40042C5F20002526822F0010210
:1020C0005A604FF48053C5F6000303F5805303F1C3
:1020D00014031B687B607B6823F00F037B607B68C5
:1020E00043F003037B604FF48053C5F600037A6826
:1020F00003F5805303F114031A6000F0ABF800F00D
:1021000005F807F10807BD4680BD00BF80B485B063
:1021100000AF4FF48C43C5F20003DB68B3F5803F9A
:1021200040F0898044F21073C5F200031B6803F08D
:102130000403002B00F0888044F21073C5F2000302
:102140009B6803F070634FEA136303F10103FB60C4
:1021500044F21073C5F200039B6803F4FE434FEA98
:10216000132303F10103BB6044F21073C5F20003B3
:102170009B6803F4FE034FEA134303F101037B6002
:1021800044F21073C5F20003DB6803F00103002B77
:1021900028D04FF45853C0F26E13FA68B3FBF2F331
:1021A000BA6802FB03F33B603A687B68B2FBF3F268
:1021B00040F64443C2F200031A6040F64443C2F2C0
:1021C00000031A684FF48C43C5F20003DB68DBB2EE
:1021D00003F10103B2FBF3F240F64443C2F2000301
:1021E0001A6031E04FF4D853C0F2B703FA68B3FB7A
:1021F000F2F3BA6802FB03F33B603A687B68B2FB18
:10220000F3F240F64443C2F200031A6040F644433E
:10221000C2F200031A684FF48C43C5F20003DB6876
:10222000DBB203F10103B2FBF3F240F64443C2F226
:1022300000031A6008E040F64443C2F200034FF482
:102240005852C0F26E121A6007F11407BD4680BCE6
:10225000704700BF80B582B000AF05F01BFF03469A
:10226000002B00F0558244F21073C5F200035A6847
:102270004FF00203C0F201031340002B0DD044F2D3
:102280001073C5F2000344F21072C5F200025268E6
:1022900022F4803222F002025A604FF48E43C5F2DB
:1022A00000035B6803F03003002B72D04FF48E43C1
:1022B000C5F200034FF48E42C5F20002526822F0CC
:1022C000F0025A604FF48E43C5F200034FF48E4281
:1022D000C5F20002526842F400325A6044F21073B0
:1022E000C5F2000344F21072C5F20002D26822F077
:1022F0000102DA6044F21073C5F2000344F2107276
:10230000C5F20002526822F400325A604EF2100305
:10231000CEF2000344F6A332C0F24C025A604EF2F1
:102320001003CEF200034FF000029A604EF2100349
:10233000CEF200034FF005021A6044F21073C5F2AA
:1023400000031B6803F46073B3F5607F08D04EF29E
:102350001003CEF200039A6840F2F3139A42ECD8CD
:102360004EF21003CEF200034EF21002CEF2000243
:10237000126822F001021A6044F21073C5F20003E1
:102380001B6803F46073B3F5607F02D04FF0000365
:10239000C0E144F21073C5F200031B6803F00403AC
:1023A000002B40F0B5814FF48C43C5F20003DB688D
:1023B00003F48033002B0BD04FF48C43C5F20003A1
:1023C0004FF48C42C5F20002D26822F48032DA6007
:1023D0004FF46053C1F69C437B607A6849F6817381
:1023E000C1F25E63A3FB02134FEA535303F1FF33C1
:1023F0003B6044F21073C5F2000344F21072C5F260
:102400000002526842F001025A6044F21073C5F2B1
:10241000000344F21072C5F20002526842F010024A
:102420005A6044F21072C5F200023B684FEA034161
:1024300044F60173C0F200130B43936044F210732F
:10244000C5F2000344F21072C5F20002526842F075
:1024500040025A6044F21073C5F2000344F2107255
:10246000C5F20002526822F010025A6044F2107362
:10247000C5F2000344F21072C5F20002526842F441
:1024800080225A604EF21003CEF2000344F6A332CB
:10249000C0F24C025A604EF21003CEF200034FF02D
:1024A00000029A604EF21003CEF200034FF00502D4
:1024B0001A6000BF44F21073C5F200031B6803F0FA
:1024C0000403002B08D14EF21003CEF200039A68E9
:1024D00040F2F3139A42EDD84EF21003CEF200030D
:1024E0004EF21002CEF20002126822F001021A60CF
:1024F00044F21073C5F200031B6803F00403002BC1
:102500004ED044F21073C5F2000344F21072C5F2CB
:102510000002526822F001025A604FF48C43C5F267
:1025200000034FF000021A614FF48C43C5F2000320
:102530004FF000025A614FF48C43C5F200034FF094
:1025400000021A624FF48C43C5F200034FF48C4230
:10255000C5F20002D26842F48032DA6044F21073AD
:10256000C5F2000344F21072C5F20002526822F074
:1025700040025A604EF21003CEF2000340F2455280
:102580005A604EF21003CEF200034FF000029A6040
:102590004EF21003CEF200034FF005021A6002E083
:1025A0004FF00003B6E04EF21003CEF200039B683A
:1025B000632BF8D84EF21003CEF200034EF2100255
:1025C000CEF20002126822F001021A604FF460534A
:1025D000C1F69C437B607B684FEA132245F2C743F8
:1025E000C0F21E13A3FB02134FEA932303F1FF3340
:1025F0003B6044F21072C5F200023B684FEA0341AF
:1026000044F60173C0F200130B4393604EF21003C3
:10261000CEF2000340F61B425A604EF21003CEF297
:1026200000034FF000029A604EF21003CEF2000356
:102630004FF005021A6000BF4EF21003CEF2000305
:102640009B68632BF8D84EF21003CEF200034EF2D3
:102650001002CEF20002126822F001021A604FF45A
:102660006053C1F69C437B607B684FEAD3124EF205
:102670002F33C0F2BE03A3FB02134FEAD32303F1AF
:10268000FF333B6044F21072C5F200023B684FEA30
:10269000034144F60173C0F200130B4393604EF202
:1026A0001003CEF2000341F223325A604EF21003BF
:1026B000CEF200034FF000029A604EF21003CEF209
:1026C00000034FF005021A6000BF4EF21003CEF275
:1026D00000039B68632BF8D84EF21003CEF2000380
:1026E0004EF21002CEF20002126822F001021A60CD
:1026F00044F21073C5F2000344F60172C0F20312F3
:102700009A6044F26013C5F200034FF00502DA60EC
:102710004FF00103184607F10807BD4680BD00BF12
:102720002DE9F04794B00AAF04F0C6FEFEF78CFE28
:10273000FDF7FEFDFDF7BEFD40F68C12C2F2000271
:1027400040F69473C0F6010314461D460FCD0FC426
:102750002B681A46228004F102044FEA13432370C7
:1027600040F68C10C2F20000FDF7AEFDFEF78EFCC5
:1027700040F68C12C2F2000240F6A873C0F60103C4
:1027800014460FCB07C4238004F102044FEA13431D
:10279000237040F68C10C2F20000FDF795FD4FF05B
:1027A00000037B6202E0386A00F060FAFDF74CFF3C
:1027B00038623B6A002BF6D107F1180007F11001CF
:1027C00007F108023B46FEF72DFD40F60913C2F261
:1027D00000031B78DBB2002B08D107F1180007F1CA
:1027E000100107F108023B4600F098F83B8B1A46AF
:1027F0007B8B397F8A46398A8946798A8846397D32
:102800008C4639898E4679890E46397B0D46398842
:102810000C46798808463979CDF800A0CDF80490A7
:10282000CDF80880CDF80CC0CDF810E005960695DF
:1028300007940890099140F68C10C2F2000040F60F
:10284000B871C0F6010105F097FE7B6A062B14BF34
:1028500000230123DBB27A6A02F101027A62002BC3
:1028600004D0FEF731FE4FF000037B624FF00A0008
:10287000FEF7AAFF00BF99E780B500AF6FF0310007
:10288000FDF706FE4FF4FA70FEF79EFF6FF063004F
:10289000FDF7FEFD4FF4FA70FEF796FF4FF03200A1
:1028A000FDF7F6FD4FF4FA70FEF78EFF4FF064006F
:1028B000FDF7EEFD4FF4FA70FEF786FF4FF00000D3
:1028C000FDF7E6FD4FF4FA60FEF77EFF6FF01D00A6
:1028D000FDF74CFE4FF4FA70FEF776FF4FF01E0046
:1028E000FDF744FE4FF4FA70FEF76EFF4FF0000064
:1028F000FDF73CFE80BD00BF80B483B000AF7860C0
:1029000048F2A063C0F201037A6893FBF2F3184621
:1029100007F10C07BD4680BC704700BFF0B59DB005
:1029200008AFF860B9607A603B60FB687B61BB68A8
:10293000BB617B68FB613B683B624FF00003FB645B
:102940004FF00003BB644FF000037B645BE0BB6CA3
:10295000002B5CD17B6C4FEA830307F15002D31844
:1029600053F83C3C1B79022B49D87B6C4FEA83031C
:1029700007F15002D31853F83C3CFB647B6C03F125
:1029800001033B6438E03B6C4FEA830307F15002DC
:10299000D31853F83C3C1B881A46FB6C1B88A3F1E8
:1029A00032039A4224DB3B6C4FEA830307F1500267
:1029B000D31853F83C3C1B881A46FB6C1B8803F168
:1029C00032039A4214DC3B6C4FEA830307F1500256
:1029D000D31853F83C3C1B79022B09D83B6C4FEAC7
:1029E000830307F15002D31853F83C3CBB6406E064
:1029F0003B6C03F101033B643B6C032BC3DD7B6C3D
:102A000003F101037B647B6C032BA0DD00E000BFBE
:102A1000FB6C002B02D0BB6C002B26D140F61013B0
:102A2000C2F200031B6803F1010240F61013C2F268
:102A300000031A6040F61013C2F200031B68052B56
:102A400040F2108140F61413C2F200034FF000026E
:102A50001A6040F61813C2F200034FF000021A6029
:102A60004FF00000FDF782FDFCE040F61013C2F2CB
:102A700000034FF000021A60BB6C5A88FB6C5B8845
:102A80009A4205D2FB6CBB63BB6CFB64BB6BBB6443
:102A9000BB6C5B881A46FB6C5B88D31A7B63786BD4
:102AA000FFF72AFF38633B6BB3F5E16F16DD40F6A5
:102AB0001413C2F200034FF000021A6040F618131C
:102AC000C2F200034FF000021A604FF00000FDF761
:102AD0004DFD4FF00000FDF7DBFCC3E0FB6C1B88F5
:102AE000FA6C12881646FA6C52881546FA6C1279FE
:102AF0001446BA6C12881046BA6C52881146BA6CE9
:102B00001279D7F830E0CDF800E0019602950394F1
:102B100004900591069240F68C10C2F2000040F637
:102B2000EC71C0F601011A467B6B05F025FD40F6FD
:102B30000813C2F200031B78002B05D040F68C105E
:102B4000C2F20000FDF7C0FB4FF00003FB633B6BDC
:102B5000A3F5E173FB6240F61813C2F200031B6891
:102B6000FA6AD31ABB6240F61413C2F200031A6861
:102B7000FB6AD21840F61413C2F200031A60D7EDB4
:102B80000B7AB8EEE77A40F61413C2F20003D3EDE5
:102B9000007AF8EEE76A40F60C13C2F20003D3EDB8
:102BA000007A66EEA77A37EE277AD7ED0A7AF8EE42
:102BB000E76A40F64C43C2F20003D3ED007A66EEBA
:102BC000A77A37EE277A40F64843C2F20003D3EDE6
:102BD000007A67EE277AFDEEE77AC7ED0F7A40F6C6
:102BE0001413C2F200031A6840F61813C2F200036D
:102BF0001B68F96A009101920293BB6A039340F645
:102C00008C10C2F2000041F23001C0F601013A6BB3
:102C1000FB6B05F0B1FCFB6B002B02DA4FF00003FD
:102C2000FB63FB6B632B02DD4FF06303FB63F86B0D
:102C3000FDF79CFC40F61813C2F20003FA6A1A6012
:102C4000FB6C1B886FF0630202FB03F303F5484340
:102C5000002B01DA03F2FF134FEA63237B62786AE9
:102C6000FDF716FC07F15407BD46F0BDF0B587B07F
:102C700004AF78607B681B78A3F10303072B78D837
:102C800001A252F823F000BFA92C0008C52C0008AF
:102C9000212D0008312D0008412D0008E12C0008ED
:102CA000512D0008012D000840F60913C2F200035F
:102CB0001B78DBB2002B5ED17B685B681846FDF7A2
:102CC00055FC58E040F60913C2F200031B78DBB252
:102CD000002B52D17B685B681846FDF7D9FB4CE0AE
:102CE00040F60913C2F200034FF001021A704FF0D0
:102CF0000000FDF73BFC4FF00000FDF7C9FB3DE095
:102D000040F60913C2F200034FF000021A704FF0B0
:102D10000000FDF72BFC4FF00000FDF7B9FB2DE0A4
:102D20007B689A6840F64843C2F200031A6025E0C7
:102D30007B689A6840F60C13C2F200031A601DE02B
:102D40007B689A6840F64C43C2F200031A6015E0B3
:102D500040F60813C2F200031B78002B14BF0023B7
:102D60000123DBB21A4640F60813C2F200031A70C0
:102D700004E000BF02E000BF00E000BF40F609131E
:102D8000C2F200031B78DBB2002B1BD040F68C1282
:102D9000C2F2000241F26403C0F6010314461D466C
:102DA0000FCD0FC495E8070003C4228004F102048C
:102DB0004FEA1243237040F68C10C2F20000FDF778
:102DC00083FA29E07B681B781846FDF775FC0546F9
:102DD0007B685B781846FDF781FC04467B685E687B
:102DE0007B689B68184605F007FB02460B46009679
:102DF000CDE9022340F68C10C2F2000041F28001BE
:102E0000C0F601012A46234605F0B6FB40F68C10B9
:102E1000C2F20000FDF758FA07F10C07BD46F0BDFD
:102E200080B485B000AFF860B9607A604FF0FF33CE
:102E3000184607F11407BD4680BC704780B485B0C2
:102E400000AFF860B9607A604FF0FF33184607F1C1
:102E50001407BD4680BC704780B485B000AFF860F1
:102E6000B9607A604FF00003184607F11407BD46B9
:102E700080BC704780B485B000AFF860B9607A60FC
:102E80004FF0FF33184607F11407BD4680BC70476A
:102E900080B400AF4FF0FF331846BD4680BC70478A
:102EA00080B483B000AF786039603B68002B02D0FB
:102EB0004FF0FF3301E06FF00103184607F10C07F4
:102EC000BD4680BC704700BF80B483B000AF78605F
:102ED00039607A683B689A4202D14FF0FF3301E0D3
:102EE0006FF00103184607F10C07BD4680BC704720
:102EF00080B483B000AF78604FF0FF33184607F11D
:102F00000C07BD4680BC704780B487B000AF7860C6
:102F10004EF6C023C0F200037B6140F62013C2F2DC
:102F200000031B68002B14D140F62013C2F20003EB
:102F300041F24052C2F200021A6040F62013C2F27F
:102F400000031A687B69D21840F62413C2F200030A
:102F50001A6040F62013C2F200031B683B6140F682
:102F60002013C2F200031B681A467B68D31803F1D2
:102F7000070323F00703FB6040F62413C2F20003AB
:102F80001B68FA689A4202D34FF0000306E040F64D
:102F90002013C2F20003FA681A603B69184607F171
:102FA0001C07BD4680BC704780B483B000AF78601A
:102FB0004FF0FF33184607F10C07BD4680BC704741
:102FC00080B483B000AF78604FF0FF33184607F14C
:102FD0000C07BD4680BC704780B483B000AF7860FA
:102FE00039604FF0FF33184607F10C07BD4680BC2F
:102FF000704700BF80B400AF4FF0FF331846BD46A6
:1030000080BC704780B400AF4FF0FF331846BD4618
:1030100080BC704780B483B000AF7860FEE700BF2B
:1030200080B400AFBD4680BC704700BF80B483B0A1
:1030300000AF78604FF0FF33184607F10C07BD462C
:1030400080BC704780B485B000AF78607B681B6837
:10305000FB60FB681B6C23F00202FB681A64FB68D0
:10306000DB6843F00302FB68DA60FB681B6943F42A
:103070000042FB681A61FB681A697B681B8D4FEA86
:1030800083534FEA93531A43FB681A61FB685A69EA
:103090007B6893F830304FEA032303F440717B6878
:1030A0009B8D4FEA832303F4F84319437B685B8DC0
:1030B0004FEA03404FF00003C0F2FF3303400B43DD
:1030C0001A43FB685A61FB685B6B43F48172FB68CF
:1030D0005A63FB685A6B7B689B8B4FEA034303F48C
:1030E0007C117B689B8B4FEA036303F070630B4397
:1030F0001A43FB685A63FB689B6B43F4A062FB684E
:103100009A63FB68DA6B7B685B7D4FEA430303F0ED
:1031100002017B68DB8D4FEA032303F4F8530B4372
:10312000134343F00102FB68DA637B6893F82430B1
:10313000002B05D0FB68DB6B43F02002FB68DA63F1
:103140007B6893F82530002B05D0FB68DB6B43F0E0
:103150004002FB68DA637B6893F82630002B05D0C9
:10316000FB68DB6B43F08002FB68DA637B689B7F64
:10317000002B0ED0FB68D3F808217B6893F8203031
:103180004FEA032303F47C531A43FB68C3F8082176
:1031900005E0FB689B6C43F40052FB689A647B6813
:1031A000DB7F002B0FD0FB68D3F80C217B6893F8F2
:1031B00021304FEA032303F47C53134343F080523E
:1031C000FB68C3F80C21FB681A6C7B689B7D4FEA97
:1031D000032303F44073134343F00202FB681A64B1
:1031E00007F11407BD4680BC704700BF80B485B0AE
:1031F00000AF78607B685B687A68526851687A686B
:10320000127A4FF0010000FA02F20A435A607B681A
:103210001B7AFB60FB68032B10D87B685B687A68BD
:1032200052681169FA684FEAC20202F103024FF0D4
:10323000180000FA02F20A431A614FE0FB68032B00
:1032400017D9FB68072B14D8FB68A3F10403FB60B4
:103250007B685B687A6852685169FA684FEAC20213
:1032600002F103024FF0180000FA02F20A435A6119
:1032700034E0FB68072B17D9FB680B2B14D8FB68CD
:10328000A3F10803FB607B685B687A685268916908
:10329000FA684FEAC20202F103024FF0180000FA86
:1032A00002F20A439A6119E0FB680B2B16D9FB68FE
:1032B0000F2B13D8FB68A3F10C03FB607B685B68E2
:1032C0007A685268D169FA684FEAC20202F10302D1
:1032D0004FF0180000FA02F20A43DA6107F114070E
:1032E000BD4680BC704700BF80B485B000AF786039
:1032F000D7ED017AF5EEC07AF1EE10FA06D5D7EDEA
:10330000017AF1EE677AC7ED037A01E07B68FB6032
:10331000FB68184607F11407BD4680BC704700BF24
:1033200080B52DED028BAEB000AFF860B9607A6069
:103330004FF00003C7F8B4304FF00003C7F8B030C7
:10334000FB68C7F8AC304FF00003C7F8A8304FF067
:103350000003C7F888304FF00003FB6742F6C653FE
:10336000C7F8A830D7ED2B7AB8EE677AD7ED2A7A6E
:10337000F8EE677AC7EE277AC7ED1E7A97ED1E7AC8
:10338000F7EE007AB4EEE77AF1EE10FA12DD4FF4C0
:103390008063C7F8A4304FF0010387F88330D7F873
:1033A000AC30FB67D7F8A830C7F8AC30FB6FC7F874
:1033B000A83007E04FF0000387F883304FF48063B4
:1033C000C7F8A4304FF00003C7F884304FF0000373
:1033D000C7F890304FF00003C7F88C30D7F8AC3006
:1033E0003B66D7F8A8303B644FF001033B634FF0D6
:1033F00000033B62D7F8843003F10103C7F884303F
:10340000D7F88C307B67D7F89030C7F88C30D7F876
:10341000843003F00303C7F89030D7F88C304FEABC
:10342000830307F1B801CB1853F8582CD7F8903024
:103430004FEA830307F1B801CB1843F8682CD7F89B
:103440008C304FEA830307F1B802D31853F8782C75
:10345000D7F890304FEA830307F1B801CB1843F84F
:10346000582CD7F890304FEA830307F1B802D318ED
:1034700053F8682CD7F890304FEA830307F1B8016E
:10348000CB1853F8583CB2FBF3F2D7F890304FEA20
:10349000830307F1B801CB1843F8A82CD7F8903074
:1034A0004FEA830307F1B802D31853F8682CD7F812
:1034B00090304FEA830307F1B801CB1853F8583C1A
:1034C000B2FBF3F103FB01F3D21AD7F890304FEAC5
:1034D000830307F1B801CB1843F8782CD7F8843070
:1034E000012B05D17B697B634FF001037B624BE0CD
:1034F000D7F890304FEA830307F1B802D31853F896
:10350000A82CD7F88C304FEA830307F1B801CB1809
:1035100053F8883C03FB02F27B6F4FEA830307F109
:10352000B801CB1853F8883CD218D7F890304FEA3E
:10353000830307F1B801CB1843F8882CD7F89030F3
:103540004FEA830307F1B802D31853F8A82CD7F831
:103550008C304FEA830307F1B801CB1853F8983C3D
:1035600003FB02F27B6F4FEA830307F1B801CB182C
:1035700053F8983CD218D7F890304FEA830307F1FC
:10358000B801CB1843F8982CD7F890304FEA830352
:1035900007F1B802D31853F8982CD7F8A4309A4200
:1035A00040F2DF80D7F88C304FEA830307F1B8018F
:1035B000CB1853F8883CC7F8A030D7F88C304FEAC6
:1035C000830307F1B802D31853F8983CC7F8983032
:1035D0007B6F4FEA830307F1B801CB1853F8983C8F
:1035E000D7F8A420D21AD7F88C304FEA830307F11A
:1035F000B801CB1853F8983CB2FBF3F33B67D7F80C
:10360000903003F1FF334FEA830307F1B802D31878
:1036100053F8883C3A6F02FB03F2D7F89030A3F1DD
:1036200002034FEA830307F1B801CB1853F8883C33
:10363000D318C7F89C30D7F8903003F1FF334FEA26
:10364000830307F1B802D31853F8983C3A6F02FB92
:1036500003F27B6F4FEA830307F1B801CB1853F8ED
:10366000983CD318C7F8943097F88330002B13D0C8
:10367000D7F8A030FB67D7F89830C7F8A030FB6FB9
:10368000C7F89830D7F89C30FB67D7F89430C7F864
:103690009C30FB6FC7F89430D7F89830002B03D0DC
:1036A000D7F8A030002B08D1D7F89C30C7F8B43039
:1036B000D7F89430C7F8B0304EE0D7F89430002BEC
:1036C00003D0D7F89C30002B08D1D7F8A030C7F82A
:1036D000B430D7F89830C7F8B0303DE0D7ED287A4D
:1036E000B8EE677AD7ED267AF8EE677AC7EE277AD2
:1036F00097ED1E7A77EE677A17EE900AFFF7F4FDE2
:1037000008EE100AD7ED277AB8EE677AD7ED257A5A
:10371000F8EE677AC7EE277A97ED1E7A77EE677A2A
:1037200017EE900AFFF7E0FD07EE900AB4EEE78A85
:10373000F1EE10FA08DDD7F89C30C7F8B430D7F8AE
:103740009430C7F8B03007E0D7F8A030C7F8B430ED
:10375000D7F89830C7F8B0304FF00503C7F8883075
:1037600032E0D7F890304FEA830307F1B802D3185C
:1037700053F8783C002B27D1D7F890304FEA8303D9
:1037800007F1B801CB1853F8883CC7F8B430D7F824
:1037900090304FEA830307F1B802D31853F8983CEE
:1037A000C7F8B03097F88330002B09D0D7F8B43081
:1037B000FB67D7F8B030C7F8B430FB6FC7F8B0304C
:1037C0004FF00503C7F88830D7F88830052B7FF411
:1037D00011AED7F8B42040F2FF339A4203D940F239
:1037E000FF33C7F8B4307B68D7F8B4201A60D7F835
:1037F000B03003F1FF32BB681A6007F1B807BD466D
:10380000BDEC028B80BD00BF80B582B000AF4FF42D
:10381000006000F02FFF4FF000037B6021E040F6D6
:103820005043C2F200037A6853F822301B7D012B0B
:1038300009D140F65043C2F200037A6853F82230AF
:103840001846FFF7D3FC40F65043C2F200037A68F3
:1038500053F822301846FFF7F5FB7B6803F10103AC
:103860007B607B68002BDAD007F10807BD4680BD7E
:1038700080B483B000AF786007F10C07BD4680BC10
:10388000704700BF80B58AB000AFF860B960FA71C8
:10389000BB714FF000037B614FF000033B61FB689D
:1038A0001B683B624FF005037B623B6A9B6C03F035
:1038B0000103FB613B6A9B6C03F002034FEA530375
:1038C000BB61FA69BB691340012B5BD13B6A1B6C7E
:1038D00023F002023B6A1A6407F1140207F1100395
:1038E000B86811461A46FFF71BFD3B6A1B6923F4B3
:1038F0007F7323F003033A6A13613B6A1A693B69D9
:103900004FEA83534FEA93531A433B6A1A613B6A67
:103910005B6923F07F7323F440333A6A53613B6A57
:103920005A697B694FEA03414FF00003C0F2FF334D
:103930000B401A433B6A5A613B6ADB6B23F002027D
:103940003B6ADA633B6ADA6BBB794FEA430303F005
:1039500002031A433B6ADA633B6A1B6C23F440722E
:103960003B6A1A643B6A1A6CFB794FEA032303F43F
:103970004073134343F002023B6A1A644FF00003A2
:103980007B6202E04FF003037B627B6A184607F11B
:103990002807BD4680BD00BF80B487B000AFF86087
:1039A000B9607A604FF000037B61FB681B683B6184
:1039B000FB68DB7F002B1FD011E03B69D3F81C3183
:1039C0009AB2BB681A807B6803F1FF337B607B6926
:1039D00003F101037B61BB6803F10203BB603B6938
:1039E000D3F8143103F008034FEAD303002B0CD1B2
:1039F0007B68002BE1D108E03B695B6D9AB2BB6844
:103A00001A807B6903F101037B617B69184607F12A
:103A10001C07BD4680BC704780B487B000AFF8601B
:103A2000B9607A604FF000037B61FB681B683B6103
:103A3000FB68DB7F002B1FD011E03B69D3F81C3102
:103A4000DAB2BB681A707B6803F1FF337B607B6975
:103A500003F101037B61BB6803F10103BB603B69B8
:103A6000D3F8143103F008034FEAD303002B0CD131
:103A70007B68002BE1D108E03B695B6DDAB2BB6883
:103A80001A707B6903F101037B617B69184607F1BA
:103A90001C07BD4680BC704780B487B000AFF8609B
:103AA000B9607A604FF000037B61FB681B683B6183
:103AB000FB689B7F002B1FD011E0BB681B881A4658
:103AC0003B69C3F880217B6803F1FF337B607B692E
:103AD00003F101037B61BB6803F10203BB603B6937
:103AE000D3F8143103F480534FEA1333002B13D16E
:103AF0007B68002BE1D10FE03B699B6B03F08003F7
:103B0000002B09D1BB681B881A463B69C3F880208B
:103B10007B6903F101037B617B69184607F11C0790
:103B2000BD4680BC704700BF80B487B000AFF8606E
:103B3000B9607A604FF000037B61FB681B683B61F2
:103B4000FB689B7F002B1FD011E0BB681B781A46D7
:103B50003B69C3F880217B6803F1FF337B607B699D
:103B600003F101037B61BB6803F10103BB603B69A7
:103B7000D3F8143103F480534FEA1333002B13D1DD
:103B80007B68002BE1D10FE03B699B6B03F0800366
:103B9000002B09D1BB681B781A463B69C3F880200B
:103BA0007B6903F101037B617B69184607F11C0700
:103BB000BD4680BC704700BF80B487B000AF78605E
:103BC0000B46FB704FF001037B614FF000033B613C
:103BD0007B681B68FB60FB780F2B0BD8FB689B6C2A
:103BE0003B61FB784FF0010202FA03F33A6913409C
:103BF0003B611FE0FB78122B0ED8FB68D3F8143121
:103C00003B61FB78A3F110034FF0010202FA03F3CA
:103C10003A6913403B610DE0FB68D3F814313B6116
:103C2000FB78A3F10B034FF0010202FA03F33A69A8
:103C300013403B613B69002B02D04FF002037B61D4
:103C40007B69184607F11C07BD4680BC704700BF62
:103C500080B485B000AF78600B46FB707B681B6852
:103C6000FB60FB780F2B0AD8FB68DA6CFB784FF00F
:103C7000010101FA03F31A43FB68DA641FE0FB78E1
:103C8000122B0ED8FB68D3F81821FB78A3F1100390
:103C90004FF0010101FA03F31A43FB68C3F818213E
:103CA0000DE0FB68D3F81821FB78A3F10B034FF06C
:103CB000010101FA03F31A43FB68C3F8182107F165
:103CC0001407BD4680BC704780B400AF4FF46D430D
:103CD000CEF20003DB6803F4E0634FEA13231846D7
:103CE000BD4680BC704700BF80B483B000AF0346C0
:103CF0003960FB7197F90730002B10DA4FF46D43F0
:103D0000CEF20003FA7902F00F02A2F104013A6840
:103D1000D2B24FEA8202D2B25B181A760DE04FF4AB
:103D20006143CEF2000397F907103A68D2B24FEA26
:103D30008202D2B25B1883F8002307F10C07BD465C
:103D400080BC704780B489B000AFF860B9607A6019
:103D5000FB6803F00703FB61FB69C3F10703062B54
:103D600028BF0623BB61FB6903F10603062B03D9B9
:103D7000FB6903F1FF3301E04FF000037B61BB6996
:103D80004FF0010202FA03F303F1FF331A46BB6856
:103D90001A407B6902FA03F27B694FF0010101FAD4
:103DA00003F303F1FF3319467B680B4013431846B6
:103DB00007F12407BD4680BC704700BF80B582B0C4
:103DC00000AF78607B6803F1FF326FF07F439A4267
:103DD00002D94FF001031DE04EF21003CEF20003B2
:103DE0007A6802F1FF325A604FF0FF304FF03F0126
:103DF000FFF77AFF4EF21003CEF200034FF00002FD
:103E00009A604EF21003CEF200034FF007021A60E0
:103E10004FF00003184607F10807BD4680BD00BFFC
:103E200080B487B000AF786040F6F013C2F20003B0
:103E30007A684FEA42129B1803F108031B68FB6083
:103E400040F62813C2F200031B68002B0DD17B68DB
:103E50004FEA431240F6F013C2F20003D21840F6C4
:103E60002813C2F200031A60DEE040F62813C2F203
:103E700000031B687B61FB683B61D1E07B699B6849
:103E80003A69D31A3B613B69002B80F29C807B69C5
:103E9000DB69002B2ED07B69DA697B684FEA43111E
:103EA00040F6F013C2F20003CB1893617B69DA6924
:103EB00040F6F013C2F2000379684FEA41115B1833
:103EC00003F11C031A6040F6F013C2F200037A6893
:103ED0004FEA42129B1803F118037A691A607B6853
:103EE0004FEA431240F6F013C2F20003D2187B6986
:103EF000DA612AE040F62813C2F200031A6840F69D
:103F0000F013C2F2000379684FEA41115B1803F124
:103F100018031A6040F62813C2F200031A687B687F
:103F20004FEA431140F6F013C2F20003CB18D361FD
:103F30007B684FEA431240F6F013C2F20003D21836
:103F400040F62813C2F200031A6040F6F013C2F2E2
:103F500000037A684FEA42129B1803F118031B68AA
:103F60009A683B69D21840F6F013C2F200037968F0
:103F70004FEA41115B1803F108031A6040F6F01391
:103F8000C2F200037A684FEA42129B1803F1180349
:103F90001A6840F6F013C2F2000379684FEA411143
:103FA0005B1803F118031B68996840F6F013C2F21E
:103FB000000378684FEA40101B1803F108031B68E0
:103FC000CB1A936030E03B69002B26DB7B699B6951
:103FD000002B22D140F6F013C2F200037A684FEAB8
:103FE00042129B1803F11C037A691A607B684FEA3E
:103FF000431240F6F013C2F20003D2187B699A61B3
:104000003A6940F6F013C2F2000379684FEA4111B1
:104010005B1803F108031A6006E07B699B697B610A
:104020007B69002B7FF42AAF07F11C07BD4680BCDB
:10403000704700BF80B485B000AF78607B684FEAFE
:10404000431240F6F013C2F20003D318FB60FB6882
:10405000DB69002B0BD1FB689B69002B07D140F675
:104060002813C2F200034FF000021A6049E0FB6817
:10407000DB69002B1CD1FB689A6940F62813C2F259
:1040800000031A6040F62813C2F200031B684FF0C9
:104090000002DA61FB689B69FA6892699168FA68C4
:1040A00092688A189A60FB684FF000029A6128E0D3
:1040B000FB689B69002B09D1FB68DB694FF00002AC
:1040C0009A61FB684FF00002DA611AE0FB68DB6975
:1040D000FA6892699A61FB689B69FA68D269DA6149
:1040E000FB689B69FA6892699168FA6892688A1815
:1040F0009A60FB684FF000029A61FB684FF0000283
:10410000DA6107F11407BD4680BC704780B582B004
:1041100000AF40F62813C2F200031B687B6031E059
:104120007B681B79002B0FD17B681B681846FFF753
:1041300081FF7B684FF001025A717B681B697A68C6
:1041400052691046984717E07B681B79012B21D1F3
:104150007B681B681846FFF76DFF7B68DA687B6831
:104160009A607B681B681846FFF75AFE7B681B69DC
:104170007A6852691046984740F62813C2F2000345
:104180001B687B607B68002B05D07B689B68002BDD
:10419000C6D000E000BF07F10807BD4680BD00BFE4
:1041A00080B582B000AF40F62813C2F200031B684E
:1041B0007B6040F63013C2F200031B6803F101027A
:1041C00040F63013C2F200031A607B68002B10D057
:1041D0007B689B68012B06D97B689B6803F1FF32E3
:1041E0007B689A6005E07B684FF000029A60FFF7F9
:1041F0008DFF07F10807BD4680BD00BF80B582B0C6
:1042000000AF4FF000037B6040F62813C2F20003BA
:104210004FF000021A6003F019FF4DF2C040C0F2E7
:104220000100FFF7CBFD7860FFF74EFD034618460F
:104230004FF00A014FF00002FFF784FD03464FF0F4
:10424000FF301946FFF750FD40F62C13C2F2000371
:104250004FF000021A6007F10807BD4680BD00BF9D
:1042600080B489B000AFF8607A603B600B46FB72A7
:104270004FF00003FB614FF00003BB614FF0000300
:104280007B61FB7A002B05D0FB7A012B02D04FF02B
:1042900001037B61FB68002B02D14FF001037B61BE
:1042A000FB68002B02D14FF001037B617B68002B80
:1042B00002D14FF001037B617B69002B40F09880B5
:1042C0004FF00003BB618FE040F62C13C2F20003F5
:1042D0001A68BB6922FA03F303F00103002B7FD1B4
:1042E000BB694FF0010202FA03F240F62C13C2F24E
:1042F00000031B681A4340F62C13C2F200031A6035
:1043000040F6F013C2F20003BA694FEA42129B185A
:10431000BA691A6040F6F013C2F20003BA694FEAB4
:1043200042129B18FA7A1A7140F6F013C2F2000397
:10433000BA694FEA42129B184FF001025A71FB68AA
:1043400003F1010240F6F013C2F20003B9694FEA2B
:1043500041115B1803F108031A6040F6F013C2F232
:104360000003BA694FEA42129B1803F10C03FA6882
:104370001A6040F6F013C2F20003BA694FEA421223
:104380009B1803F110037A681A6040F6F013C2F22A
:104390000003BA694FEA42129B1803F114033A680A
:1043A0001A6040F6F013C2F20003BA694FEA4212F3
:1043B0009B1803F11C034FF000021A6040F6F01343
:1043C000C2F20003BA694FEA42129B1803F11803C4
:1043D0004FF000021A60BB6903F10103FB6107E0C3
:1043E000BB6903F10103BB61BB69072B7FF66CAFAF
:1043F000FB69184607F12407BD4680BC704700BF23
:1044000080B584B000AF78604FF00003FB607B683C
:10441000082B02D94FF00103FB6040F62C13C2F2C7
:1044200000031A687B6803F1FF3322FA03F303F0F9
:104430000103002B02D14FF00103FB607B6803F105
:10444000FF3240F6F013C2F200034FEA42129B180B
:1044500003F108031B68002B02D14FF00103FB603E
:10446000FB68002B1FD17B6803F1FF3240F6F0138D
:10447000C2F200034FEA42129B185B79002B12D064
:104480007B6803F1FF3240F6F013C2F200034FEAFB
:1044900042129B184FF000025A717B6803F1FF3300
:1044A0001846FFF7BDFCFB68184607F11007BD462C
:1044B00080BD00BF80B584B000AF78604FF00003CE
:1044C000FB607B68082B02D94FF00103FB6040F6CC
:1044D0002C13C2F200031A687B6803F1FF3322FA3F
:1044E00003F303F00103002B02D14FF00103FB6043
:1044F000FB68002B1FD17B6803F1FF3240F6F013FD
:10450000C2F200034FEA42129B185B79012B12D0D2
:104510007B6803F1FF331846FFF78CFD7B6803F1DE
:10452000FF3240F6F013C2F200034FEA42129B182A
:104530004FF001025A71FB68184607F11007BD469B
:1045400080BD00BF80B584B000AF78604FF000033D
:10455000FB607B68082B02D94FF00103FB6040F63B
:104560002C13C2F200031A687B6803F1FF3322FAAE
:1045700003F303F00103002B02D14FF00103FB60B2
:10458000FB68002B26D17B6803F1FF3240F6F01365
:10459000C2F200034FEA42129B185B79002B05D14F
:1045A0007B6803F1FF331846FFF744FD7B6803F196
:1045B000FF334FF0010202FA03F36FEA030240F601
:1045C0002C13C2F200031B681A4040F62C13C2F2EF
:1045D00000031A60FB68184607F11007BD4680BD4E
:1045E00080B400AF40F63013C2F200031B681846D7
:1045F000BD4680BC704700BF80B485B000AF786016
:104600007A684DF2C043C0F2010303FB02F3FB6082
:10461000FB68184607F11407BD4680BC704700BF11
:1046200080B487B000AF78604FF000037B614FF03B
:1046300000033B614FF48843C5F20003FB607B68D5
:104640004FEA13737B61FB6803F1100319467A6923
:1046500013464FEA43039B184FEA8303CB183B6191
:104660007B6823F070423B691A6007F11C07BD4666
:1046700080BC704780B487B000AF78604FF0000313
:104680007B614FF000033B614FF48843C5F20003A8
:10469000FB607B684FEA13737B61FB6803F11403D3
:1046A00019467A6913464FEA43039B184FEA83037E
:1046B000CB183B617B6823F070423B691A6007F1BD
:1046C0001C07BD4680BC704780B483B000AF4FF478
:1046D0008843C5F200037B604FF00003FB707B68EA
:1046E0001B68FB70FB78184607F10C07BD4680BCC1
:1046F000704700BF80B489B000AF78604FF00F03FF
:10470000FB614FF00003BB614FF000037B614FF092
:1047100000033B614FF48843C5F20003FB607B68F4
:104720004FEA1373BB61FB6803F10C031946BA69C6
:1047300013464FEA43039B184FEA8303CB187B6170
:104740007B691A687B68134023F070433B613B69C7
:10475000002B03D04FF00103FB6102E04FF0000398
:10476000FB61FB69184607F12407BD4680BC704712
:1047700080B483B000AF4FF48843C5F200037B6080
:104780007B689B6843F001027B689A6007F10C0725
:10479000BD4680BC704700BF80B582B000AF4FF00F
:1047A00001037B6003F07EFC41F2C400C0F601000F
:1047B00000F09EF878607B68002B0DD141F2C403B5
:1047C000C0F601035B78012B06D141F2C400C0F6AC
:1047D000010000F0CBFA786041F20C10C0F6010045
:1047E00000F086F878607B68002B0DD141F20C1345
:1047F000C0F601035B78012B06D141F20C10C0F624
:10480000010000F0B3FA78604FF40143C4F60203EC
:104810004FF40142C4F60202126C22F4E0621A6400
:104820004FF40143C4F602034FF40142C4F60202FE
:10483000126C1A644FF40143C4F602034FF40142B0
:10484000C4F60202126922F480021A614FF4014395
:10485000C4F602034FF40142C4F6020212691A615F
:1048600041F25410C0F6010000F042F878607B6815
:10487000002B0DD141F25413C0F601035B78012BDC
:1048800006D141F25410C0F6010000F06FFA7860D2
:104890004FF40143C4F602034FF40142C4F602028E
:1048A000126C22F070021A644FF40143C4F6020342
:1048B0004FF40142C4F60202126C1A644FF4014331
:1048C000C4F602034FF40142C4F60202126922F454
:1048D00080421A614FF40143C4F602034FF40142CF
:1048E000C4F6020212691A6107F10807BD4680BDCD
:1048F00090B585B000AF78604FF00103FB607B6836
:10490000DB6B1B78002B40F069817B689B694FF063
:1049100007021A617B68DB7B012B27D17B689A69D0
:104920007B689B691B6823F0C05323F4402313600A
:104930007B689B697A689269526822F00C025A601F
:104940007B689B697A68926911687A6892F824207A
:104950004FEA824202F440220A431A607B689B6954
:104960007A689269526842F008025A607B685B7C00
:10497000012B2BD17B6893F82030012B26D07B684C
:104980009A697B689B691B6823F0C24323F4401338
:1049900013607B689B697A689269526822F40032DE
:1049A0005A607B689B697A68926911687A681278A4
:1049B0004FEA026202F080720A431A607B689B69C8
:1049C0007A689269526842F400325A607B689A6948
:1049D0007B689B695B6923F4CE4323F00903536131
:1049E0007B689B697A68926951697A6892F8362087
:1049F00002F001007A6892F834204FEA822202F431
:104A0000806210437A6892F835204FEA022202F45D
:104A1000407202430A435A617B6893F82030012BAD
:104A20000ED07B689B697A68127B4FEA420202F0E3
:104A300002017A689269526922F002020A435A61BD
:104A40007B689B697A68926951697A6892F821203B
:104A50004FEA423202F4C0420A435A617B689B69C2
:104A60007A68527B02F00F017A689269126A22F02A
:104A70000F020A431A627B6893F82030012B2CD076
:104A80007B689B697A68927C4FEA425202F400117B
:104A90007A689269526922F400120A435A617B686B
:104AA0009B697A68D27C4FEA825202F480017A686C
:104AB0009269526922F480020A435A617B689B69B9
:104AC0007A68527C4FEA424202F400317A68926975
:104AD000526922F400320A435A617B689B697A6802
:104AE00092F8222002F00F017A689269526A22F04D
:104AF0000F020A435A627B689B697A68127C9A614A
:104B00007B689A697B689B6A4FEA03434FEA1343C9
:104B100053637B689A697B689B684FEA03434FEA5B
:104B20001343D3637B689A697B689B69D3F8B03081
:104B300043F4706343F00F03C2F8B0307B6893F81E
:104B40002030012B0ED1786801F072F87B68DB69A8
:104B50007A68D269D2F8A4107A68126B0A43C3F853
:104B6000A4200AE07B689B697A689269D2F8A41055
:104B70007A68126B0A43C3F8A4207B685B697A6881
:104B8000526911697A6892F837204FEA82024FF031
:104B9000010000FA02F07A6892F837204FEA8202A8
:104BA00002F101024FF0010404FA02F210437A68A4
:104BB00092F837204FEA820202F102024FF001041C
:104BC00004FA02F202430A431A614FF00003FB6049
:104BD0007B68DB6B4FF001021A7000E000BFFB68DE
:104BE000184607F11407BD4690BD00BF80B489B0D8
:104BF00000AF78604FF00103FB617B68DB6B1B78D3
:104C0000002B00F0AB807B689B694FF007021A61B4
:104C10007B689B6940F60F72C3F8B0207B689B6984
:104C20004FF00002C3F8A4207B685B697A68526980
:104C300091687A6892F837204FF0010000FA02F28A
:104C40000A4342F440729A607B689B694FF000020D
:104C50001A607B689B694FF000025A607B689B6911
:104C60004FF000025A617B689B694FF000025A6264
:104C70007B689B694FF000029A617B689B694FF0EB
:104C800000021A627B689B694FF00002DA637B685E
:104C90009B694FF000025A637B6893F82030012B28
:104CA00054D17B68DB694FF007021A617B68DB69CE
:104CB00040F60F72C3F8B0207B68DB694FF000024A
:104CC000C3F8A4204FF40073BB614FF480737B6181
:104CD0007B6893F838303B617A69BB691343FB60AA
:104CE0007B685B697A68526991683A694FF00100A4
:104CF00000FA02F0FA6802430A439A607B68DB69B3
:104D00004FF000021A607B68DB694FF000025A60C6
:104D10007B68DB694FF000025A617B68DB694FF00A
:104D200000025A627B68DB694FF000029A617B687F
:104D3000DB694FF000021A627B68DB694FF000020A
:104D4000DA637B68DB694FF000025A637B68DB6BD8
:104D50004FF000021A704FF00003FB61FB69184628
:104D600007F12407BD4680BC704700BF80B485B002
:104D700000AF78604FF00103FB607B68DB6B1B7852
:104D8000012B05D07B68DB6B1B78032B40F0A780E1
:104D90007B689B6940F60F72C3F8B0207B685B6943
:104DA0007A685269D1687A6892F837204FF001002A
:104DB00000FA02F20A43DA607B6893F82030012B94
:104DC0000DD17B685B697A685269D1687A6892F81C
:104DD00038204FF0010000FA02F20A43DA607B68E3
:104DE0009B7B002B15D17B689B697A689269D2689E
:104DF00042F00102DA607B6893F82030012B65D124
:104E00007B68DB697A68D269D26842F00102DA60B5
:104E10005CE07B689B7B012B27D17B689A697B6870
:104E20009B691B6823F0C06323F4403313607B68E5
:104E30009B697A689269526822F003025A607B6823
:104E40009B697A68926911687A6892F823204FEA20
:104E5000024202F440320A431A607B689B697A6816
:104E60009269526842F001025A607B689B7B012B79
:104E70002CD17B6893F82030012B27D17B68DA692D
:104E80007B68DB691B6823F0C06323F44033136045
:104E90007B68DB697A68D269526822F003025A6043
:104EA0007B68DB697A68D26911687A6892F8232096
:104EB0004FEA024202F440320A431A607B68DB691F
:104EC0007A68D269526842F001025A607B68DB6BF3
:104ED0004FF002021A704FF00003FB6000E000BFC9
:104EE000FB68184607F11407BD4680BC704700BF39
:104EF00080B487B000AF78604FF001037B617B68BE
:104F0000DB6B1B78022B41D17B6893F837303B6118
:104F10004FF40073FB607B689B694FF007021A61D6
:104F20007B685B697A68526991683A694FF0010061
:104F300000FA02F0FA6802430A439A607B6893F829
:104F40002030012B19D17B68DB694FF007021A6111
:104F50007B6893F838303B614FF40073FB607B68EB
:104F60005B697A68526991683A694FF0010000FA0A
:104F700002F0FA6802430A439A607B68DB6B4FF0E9
:104F800003021A704FF000037B6100E000BF7B69F1
:104F9000184607F11C07BD4680BC704780B586B037
:104FA00000AF786039604FF001037B617B6893F854
:104FB0002030012B0AD17B68DB695B6B4FEA03422F
:104FC0007B689B695B6B13433B6103E07B689B6978
:104FD0005B6B3B617B68DA6A3B699A4214D23B693E
:104FE0004FEA03434FEA1343FB603B694FEA134325
:104FF000BB60BB6803F10103FA6802F1010202FB26
:1050000003F303F101033B617B68DB6B1B78002B2F
:105010001DD03A683B699A4203D94FF002037B6185
:1050200015E07B68DA6A3B689A4208D27B6893F89D
:105030002030002B03D14FF002037B6107E07B6837
:105040001B6C7868396898474FF000037B617B6977
:10505000184607F11807BD4680BD00BF80B487B071
:1050600000AF786039607B687B617B699A693B68D7
:105070004FEA03434FEA1343D3637B6993F8373016
:105080004FEA83033B613B69FB607B695B697A693B
:1050900052691169FA684FF0010000FA02F20A43FE
:1050A0001A6107F11C07BD4680BC704790B488B0F8
:1050B00000AF786039604FF00003FB614FF00003F0
:1050C000BB617B687B617B699B695B6B9BB21A46AA
:1050D0003B68B3FBF2F102FB01F29B1AFB617B69B7
:1050E0009B695B6B9BB23A68B2FBF3F3BB617B6974
:1050F0009A69FB694FEA03434FEA1343D3637B6921
:10510000DA69BB694FEA03434FEA1343D3637B6910
:1051100093F838304FEA83033B617B6993F837306B
:105120004FEA8303FB607B695B697A6952691169A5
:10513000FA684FF0010000FA02F03A694FF00104FA
:1051400004FA02F202430A431A6107F12007BD463E
:1051500090BC704780B485B000AF786039607B68E0
:10516000FB60FB689A693B684FEA03434FEA1343CD
:10517000D363FB6893F837304FEA8303BB60FB6867
:105180005B69FA6852691169BA684FF0010000FA68
:1051900002F20A431A6107F11407BD4680BC70474A
:1051A00080B584B000AF786039604FF00103FB60D8
:1051B0007B68DB6B1B78002B1BD097ED007ADFED53
:1051C000107AB4EEE77AF1EE10FA06DCD7ED007A49
:1051D000F5EEC07AF1EE10FA03D54FF00203FB6052
:1051E00007E07B685B6C7868396898474FF000038C
:1051F000FB60FB68184607F11007BD4680BD00BF85
:105200000000C84280B489B000AF786039604FF0C8
:105210000003FB617B68BB613B687B619FED1F7A8C
:10522000D7ED057A37EE677ADFED1C7AC7EE277A7D
:10523000C7ED057ABB699B695B6B03F1010307EE60
:10524000103AF8EE477AC7ED047A97ED047AD7ED75
:10525000057A67EE277AFCEEE77AC7ED077ABB6935
:105260009A69FB694FEA03434FEA1343D363BB696F
:1052700093F837304FEA8303FB60BB695B69BA6917
:1052800052691169FA684FF0010000FA02F20A430C
:105290001A6107F12407BD4680BC70470000C84270
:1052A00090B48AB000AF786039604FF000037B6241
:1052B0004FF000033B624FF00003FB617B68BB6172
:1052C0003B687B61BB69DB695B6B03F101037B625C
:1052D000BB699B695B6B4FEA03434FEA134303F1DE
:1052E00001027B6A02FB03F37B627B6A03F1010329
:1052F0007B629FED347AD7ED057A37EE677ADFED82
:10530000317AC7EE277AC7ED057AD7ED097AF8EE3C
:10531000677AC7ED047A97ED047AD7ED057A67EEE0
:10532000277AFCEEE77AC7ED097ABB699B695B6B6C
:105330004FEA03434FEA13437A6AB2FBF3F103FBEC
:1053400001F3D31A3B62BB699A693B6A4FEA034394
:105350004FEA1343D363BB699B695B6B4FEA03431B
:105360004FEA13437A6AB2FBF3F3FB61BB69DA6974
:10537000FB694FEA03434FEA1343D363BB6993F8D6
:1053800037304FEA8303FB60BB6993F838304FEA4C
:105390008303BB60BB695B69BA6952691169FA68CA
:1053A0004FF0010000FA02F0BA684FF0010404FA6D
:1053B00002F202430A431A6107F12807BD4690BC76
:1053C000704700BF0000C84280B489B000AF786069
:1053D00039604FF00003FB617B68BB613B687B6118
:1053E0009FED1E7AD7ED057A37EE677ADFED1B7AEF
:1053F000C7EE277AC7ED057ABB699B69D3ED0D7AB5
:10540000F8EE677AC7ED047A97ED047AD7ED057A5E
:1054100067EE277AFCEEE77AC7ED077ABB699A69EF
:10542000FB694FEA03434FEA1343D363BB6993F825
:1054300037304FEA8303FB60BB695B69BA69526925
:105440001169FA684FF0010000FA02F20A431A618A
:1054500007F12407BD4680BC704700BF0000C8426A
:1054600080B586B000AFF860B9607A604FF0010394
:105470007B614FF000033B61FB68DB6B1B78002B0B
:105480003BD0BB68002B09D0FB68DA6A7B689A4284
:1054900008D2FB6893F82030002B03D14FF00203B1
:1054A0007B612AE0FB68DA6ABB689A4208D2FB6833
:1054B00093F82030012B03D04FF002037B611CE0F6
:1054C000BB683B61FB6893F82030012B05D1FB687A
:1054D000DB693A694FEA12425A63FB689A693B6991
:1054E0004FEA03434FEA13435363FB681B6CF868AE
:1054F000796898474FF000037B617B69184607F194
:105500001807BD4680BD00BF80B487B000AF78608B
:1055100039604FF001037B614FF000033B617B6812
:10552000DB6B1B78002B55D03B68002B03D14FF071
:1055300002037B614EE07B68DA6A3B689A4208D2DC
:105540007B6893F82030012B03D04FF002037B617E
:1055500040E03B683B617B6893F82030012B05D12C
:105560007B68DB693A694FEA12425A637B689A6941
:105570003B694FEA03434FEA134353637B6893F855
:1055800037304FEA8303FB607B685B697A68526956
:105590001169FA684FF0010000FA02F20A431A6139
:1055A0007B6893F82030012B11D17B6893F8383059
:1055B0004FEA8303FB607B685B697A685269116913
:1055C000FA684FF0010000FA02F20A431A614FF044
:1055D00000037B617B69184607F11C07BD4680BC50
:1055E000704700BF80B588B000AFF860B9607A60DE
:1055F0004FF00103FB614FF00003BB61FB68DB6B05
:105600001B78002B70D0D7ED027AF5EE407AF1EEE0
:1056100010FA0FD097ED017ADFED367AB4EEE77A23
:10562000F1EE10FA06DCD7ED017AF5EEC07AF1EE74
:1056300010FA03D54FF00203FB6155E0FB685B688D
:105640007B6197ED057AD7ED027A67EE277AC7ED91
:10565000057A9FED297AD7ED057AC7EE277AFCEE19
:10566000E77AC7ED067AFB6893F82030002B20D14B
:10567000BA694FF6FF739A4203D94FF00203FB61F8
:105680002AE0FB6893F83630002B06D1FB689B6953
:10569000BA6902F1FF325A6307E0FB689B69BA6995
:1056A00002F1FF324FEA52025A634FF00003FB61EE
:1056B00012E0FB6893F82030012B08D1BA694FF64D
:1056C000FF739A4203D84FF00203FB6104E0F868CD
:1056D000B96900F0A9F8F861FB69002B04D1FB68F7
:1056E0005B6CF86879689847FB69184607F12007F2
:1056F000BD4680BD0000C842286B6E4E90B589B093
:1057000000AF786039604FF00103FB614FF0000398
:10571000BB617B68DB6B1B78002B7DD0D7ED007AFB
:10572000F5EE407AF1EE10FA03D14FF00203FB617F
:1057300072E07B685B687B6197ED057AD7ED007A54
:1057400067EE277AC7ED057A9FED367AD7ED057AB1
:10575000C7EE277AFCEEE77AC7ED067A7B6893F806
:105760002030002B32D1BA694FF6FF739A4203D929
:105770004FF00203FB614FE07B6893F83630002B5B
:1057800006D17B689B69BA6902F1FF325A6307E070
:105790007B689B69BA6902F1FF324FEA52025A6391
:1057A0007B6893F837304FEA83033B617B685B6922
:1057B0007A68526911693A694FF0010000FA02F201
:1057C0000A431A614FF00003FB6125E07868B9696C
:1057D00000F02AF8F861FB69002B1DD17B6893F873
:1057E00037304FEA8303FB607B6893F838304FEA29
:1057F0008303BB607B685B697A6852691169FA68E8
:105800004FF0010000FA02F0BA684FF0010404FA08
:1058100002F202430A431A61FB69184607F12407A2
:10582000BD4690BD286B6E4E80B489B000AF7860E5
:1058300039603B68FB614FF00003FB744FF00103DC
:10584000FB603B68B3F1FF3F03D14FF00203FB6005
:1058500041E03A684FF6FF739A4217D9FB694FEA65
:105860005303FB61FB7C03F10103FB74FA694FF600
:10587000FE739A42F2D8FB7C4FF0010202FA03F366
:1058800003F1FF33BB61FB697B6104E03B687B6133
:105890004FF00003BB617B6893F83630012B07D1D2
:1058A000BB694FEA5303BB617B694FEA53037B61DA
:1058B0007B689A697B694FEA03434FEA134353635A
:1058C0007B68DA69BB694FEA03434FEA13435363CA
:1058D0004FF00003FB60FB68184607F12407BD4644
:1058E00080BC704780B485B000AF786039604FF0FD
:1058F0000103FB607B68DB6B1B78012B04D07B68AA
:10590000DB6B1B78032B15D17B689A693B684FEAE8
:1059100003434FEA134313677B6893F82030012B4E
:1059200005D17B68DB693A684FEA12421A674FF08B
:105930000003FB60FB68184607F11407BD4680BCF6
:10594000704700BF80B485B000AF786039604FF019
:105950000103FB604FF00003BB607B68DB6B1B78CF
:10596000002B1ED07B6893F82030012B0FD17B6871
:10597000DB699B6803F00103BB607B689B699A68E5
:10598000BB68134003F001023B681A6006E07B68C5
:105990009B699B6803F001023B681A604FF00003AB
:1059A000FB60FB68184607F11407BD4680BC7047D2
:1059B00080B485B000AF786039604FF00103FB60C0
:1059C0004FF00003BB607B68DB6B1B78002B5ED065
:1059D0007B6893F82030012B43D17B68DB691B6F18
:1059E0004FEA0343BB607B689B691B6F4FEA03432D
:1059F0004FEA1343BA681A433B689A607B68DB69D5
:105A0000DA6B3B681A603B681B687A689269526B74
:105A100002FB03F23B681A603B681A687B689B696B
:105A2000DB6BD2183B681A607B68DB695B6B03F148
:105A300001023B685A603B685A687B689B695B6BF4
:105A40004FEA03434FEA134303F1010303FB02F25E
:105A50003B685A603B685B6803F101023B685A602F
:105A600012E07B689B691B6F4FEA03434FEA1343C5
:105A70003A6893607B689B69DA6B3B681A607B6865
:105A80009B695A6B3B685A604FF00003FB60FB68F0
:105A9000184607F11407BD4680BC704780B485B036
:105AA00000AF786039604FF00103FB607B68DB6B0F
:105AB0001B78002B29D07B6893F82030012B1CD158
:105AC0007B68DB695B6B03F101023B681A603B6832
:105AD0001A687B689B695B6B4FEA03434FEA134389
